{
  "_format": "hh-sol-artifact-1",
  "contractName": "Dex",
  "sourceName": "contracts/Dex.sol",
  "abi": [
    {
      "inputs": [
        {
          "internalType": "address",
          "name": "_token",
          "type": "address"
        }
      ],
      "stateMutability": "nonpayable",
      "type": "constructor"
    },
    {
      "inputs": [
        {
          "internalType": "uint256",
          "name": "tokenAmount",
          "type": "uint256"
        }
      ],
      "name": "addLiquidity",
      "outputs": [],
      "stateMutability": "payable",
      "type": "function"
    },
    {
      "inputs": [
        {
          "internalType": "uint256",
          "name": "amountIn",
          "type": "uint256"
        },
        {
          "internalType": "uint256",
          "name": "reserveIn",
          "type": "uint256"
        },
        {
          "internalType": "uint256",
          "name": "reserveOut",
          "type": "uint256"
        }
      ],
      "name": "getAmountOut",
      "outputs": [
        {
          "internalType": "uint256",
          "name": "",
          "type": "uint256"
        }
      ],
      "stateMutability": "pure",
      "type": "function"
    },
    {
      "inputs": [],
      "name": "owner",
      "outputs": [
        {
          "internalType": "address",
          "name": "",
          "type": "address"
        }
      ],
      "stateMutability": "view",
      "type": "function"
    },
    {
      "inputs": [],
      "name": "reserveETH",
      "outputs": [
        {
          "internalType": "uint256",
          "name": "",
          "type": "uint256"
        }
      ],
      "stateMutability": "view",
      "type": "function"
    },
    {
      "inputs": [],
      "name": "reserveToken",
      "outputs": [
        {
          "internalType": "uint256",
          "name": "",
          "type": "uint256"
        }
      ],
      "stateMutability": "view",
      "type": "function"
    },
    {
      "inputs": [],
      "name": "swapEthToToken",
      "outputs": [],
      "stateMutability": "payable",
      "type": "function"
    },
    {
      "inputs": [
        {
          "internalType": "uint256",
          "name": "tokenAmount",
          "type": "uint256"
        }
      ],
      "name": "swapTokenToEth",
      "outputs": [],
      "stateMutability": "nonpayable",
      "type": "function"
    },
    {
      "inputs": [],
      "name": "token",
      "outputs": [
        {
          "internalType": "contract IERC20",
          "name": "",
          "type": "address"
        }
      ],
      "stateMutability": "view",
      "type": "function"
    },
    {
      "stateMutability": "payable",
      "type": "receive"
    }
  ],
  "bytecode": "0x608060405234801561001057600080fd5b50604051610c8c380380610c8c8339818101604052810190610032919061011c565b806000806101000a81548173ffffffffffffffffffffffffffffffffffffffff021916908373ffffffffffffffffffffffffffffffffffffffff16021790555033600160006101000a81548173ffffffffffffffffffffffffffffffffffffffff021916908373ffffffffffffffffffffffffffffffffffffffff16021790555050610149565b600080fd5b600073ffffffffffffffffffffffffffffffffffffffff82169050919050565b60006100e9826100be565b9050919050565b6100f9816100de565b811461010457600080fd5b50565b600081519050610116816100f0565b92915050565b600060208284031215610132576101316100b9565b5b600061014084828501610107565b91505092915050565b610b34806101586000396000f3fe60806040526004361061007f5760003560e01c80638da5cb5b1161004e5780638da5cb5b14610119578063c722ecc414610144578063f4325d671461016d578063fc0c546a1461019857610086565b8063054d50d41461008b578063100af203146100c857806351c6590a146100f357806375c9f3ac1461010f57610086565b3661008657005b600080fd5b34801561009757600080fd5b506100b260048036038101906100ad9190610697565b6101c3565b6040516100bf91906106f9565b60405180910390f35b3480156100d457600080fd5b506100dd61021b565b6040516100ea91906106f9565b60405180910390f35b61010d60048036038101906101089190610714565b610221565b005b610117610335565b005b34801561012557600080fd5b5061012e61049d565b60405161013b9190610782565b60405180910390f35b34801561015057600080fd5b5061016b60048036038101906101669190610714565b6104c3565b005b34801561017957600080fd5b50610182610632565b60405161018f91906106f9565b60405180910390f35b3480156101a457600080fd5b506101ad610638565b6040516101ba91906107fc565b60405180910390f35b6000806103e5856101d49190610846565b9050600083826101e49190610846565b90506000826103e8876101f79190610846565b6102019190610888565b9050808261020f91906108eb565b93505050509392505050565b60025481565b60008054906101000a900473ffffffffffffffffffffffffffffffffffffffff1673ffffffffffffffffffffffffffffffffffffffff166323b872dd3330846040518463ffffffff1660e01b815260040161027e9392919061091c565b6020604051808303816000875af115801561029d573d6000803e3d6000fd5b505050506040513d601f19601f820116820180604052508101906102c1919061098b565b610300576040517f08c379a00000000000000000000000000000000000000000000000000000000081526004016102f790610a15565b60405180910390fd5b34600260008282546103129190610888565b92505081905550806003600082825461032b9190610888565b9250508190555050565b60003411610378576040517f08c379a000000000000000000000000000000000000000000000000000000000815260040161036f90610a81565b60405180910390fd5b6000610389346002546003546101c3565b905060008054906101000a900473ffffffffffffffffffffffffffffffffffffffff1673ffffffffffffffffffffffffffffffffffffffff1663a9059cbb33836040518363ffffffff1660e01b81526004016103e6929190610aa1565b6020604051808303816000875af1158015610405573d6000803e3d6000fd5b505050506040513d601f19601f82011682018060405250810190610429919061098b565b610468576040517f08c379a000000000000000000000000000000000000000000000000000000000815260040161045f90610a15565b60405180910390fd5b346002600082825461047a9190610888565b9250508190555080600360008282546104939190610aca565b9250508190555050565b600160009054906101000a900473ffffffffffffffffffffffffffffffffffffffff1681565b60008054906101000a900473ffffffffffffffffffffffffffffffffffffffff1673ffffffffffffffffffffffffffffffffffffffff166323b872dd3330846040518463ffffffff1660e01b81526004016105209392919061091c565b6020604051808303816000875af115801561053f573d6000803e3d6000fd5b505050506040513d601f19601f82011682018060405250810190610563919061098b565b6105a2576040517f08c379a000000000000000000000000000000000000000000000000000000000815260040161059990610a15565b60405180910390fd5b60006105b3826003546002546101c3565b90503373ffffffffffffffffffffffffffffffffffffffff166108fc829081150290604051600060405180830381858888f193505050501580156105fb573d6000803e3d6000fd5b50816003600082825461060e9190610888565b9250508190555080600260008282546106279190610aca565b925050819055505050565b60035481565b60008054906101000a900473ffffffffffffffffffffffffffffffffffffffff1681565b600080fd5b6000819050919050565b61067481610661565b811461067f57600080fd5b50565b6000813590506106918161066b565b92915050565b6000806000606084860312156106b0576106af61065c565b5b60006106be86828701610682565b93505060206106cf86828701610682565b92505060406106e086828701610682565b9150509250925092565b6106f381610661565b82525050565b600060208201905061070e60008301846106ea565b92915050565b60006020828403121561072a5761072961065c565b5b600061073884828501610682565b91505092915050565b600073ffffffffffffffffffffffffffffffffffffffff82169050919050565b600061076c82610741565b9050919050565b61077c81610761565b82525050565b60006020820190506107976000830184610773565b92915050565b6000819050919050565b60006107c26107bd6107b884610741565b61079d565b610741565b9050919050565b60006107d4826107a7565b9050919050565b60006107e6826107c9565b9050919050565b6107f6816107db565b82525050565b600060208201905061081160008301846107ed565b92915050565b7f4e487b7100000000000000000000000000000000000000000000000000000000600052601160045260246000fd5b600061085182610661565b915061085c83610661565b925082820261086a81610661565b9150828204841483151761088157610880610817565b5b5092915050565b600061089382610661565b915061089e83610661565b92508282019050808211156108b6576108b5610817565b5b92915050565b7f4e487b7100000000000000000000000000000000000000000000000000000000600052601260045260246000fd5b60006108f682610661565b915061090183610661565b925082610911576109106108bc565b5b828204905092915050565b60006060820190506109316000830186610773565b61093e6020830185610773565b61094b60408301846106ea565b949350505050565b60008115159050919050565b61096881610953565b811461097357600080fd5b50565b6000815190506109858161095f565b92915050565b6000602082840312156109a1576109a061065c565b5b60006109af84828501610976565b91505092915050565b600082825260208201905092915050565b7f546f6b656e207472616e73666572206661696c65640000000000000000000000600082015250565b60006109ff6015836109b8565b9150610a0a826109c9565b602082019050919050565b60006020820190508181036000830152610a2e816109f2565b9050919050565b7f53656e6420455448000000000000000000000000000000000000000000000000600082015250565b6000610a6b6008836109b8565b9150610a7682610a35565b602082019050919050565b60006020820190508181036000830152610a9a81610a5e565b9050919050565b6000604082019050610ab66000830185610773565b610ac360208301846106ea565b9392505050565b6000610ad582610661565b9150610ae083610661565b9250828203905081811115610af857610af7610817565b5b9291505056fea2646970667358221220c77a311ae6567da71395b2dd4646d76867cbf0984b0dbd4397a854e98de3dff364736f6c634300081c0033",
  "linkReferences": {},
  "deployedLinkReferences": {}
}